S0180000554152545F4150504C49434154494F4E2E737265633D
S11300000C942A000C943F000C943F000C943F0085
S11300100C943F000C943F000C943F000C943F0060
S11300200C943F000C943F000C943F000C943F0050
S11300300C943F000C943F000C943F000C943F0040
S11300400C943F000C943F000C943F000C943F0030
S11300500C943F0011241FBECFE5D4E0DEBFCDBF1A
S113006010E0A0E6B0E0EEEDF0E002C005900D92E5
S1130070A23AB107D9F70E9460000C946D000C9469
S1130080000090BD89B988E18AB986E880BD0895E9
S11300905D9BFECF8CB908950F931F93CF938C0172
S11300A0C0E0F801EC0FF11D80818A3021F0CF5FB0
S11300B00E944800F6CFCF911F910F910C944800F5
S11300C08CE090E00E94410080E690E00E944C00A9
S11100D088E790E00E944C00F7CFF894FFCF31
S11300DE48454C4C4F2046524F4D204150504C49B0
S11300EE434154494F4E0A00594F552048415645F5
S11300FE20444F4E4520594F555220464952535491
S113010E20424F4F544C4F4144455220434F444597
S105011E0A00D1
S9030000FC
